:020000040020DA
:10200000E84200208D222000C30D2100C10D2100D7
:10201000C10D2100C10D2100C10D210000000000F3
:10202000000000000000000000000000C10D2100C1
:10203000C10D210000000000C10D2100EF0F2100A3
:1020400011102100171021001D1021002310210064
:1020500000000000F50F2100FB0F2100C10D210041
:10206000C10D210000000000000000000000000081
:102070000000000000000000C10D21000000000071
:102080000000000000000000C10D2100C10D210072
:10209000C10D2100C10D2100C10D2100C10D210084
:1020A000C10D2100C10D2100C10D2100C10D210074
:1020B000C10D2100C10D2100C10D2100C10D210064
:1020C000C10D2100C10D2100C10D2100C10D210054
:1020D000C10D210000000000000000000000000011
:1020E00000000000000000000000000000000000F0
:1020F0000000000000000000195A2000295A2000AA
:1021000000000000000000000000000000000000CF
:1021100000000000000000000000000000000000BF
:1021200000000000000000000000000000000000AF
:10213000000000000000000000000000000000009F
:10214000000000000000000000000000000000008F
:10215000000000000000000000000000000000007F
:10216000000000000000000000000000000000006F
:10217000000000000000000000000000000000005F
:10218000000000000000000000000000000000004F
:10219000000000000000000000000000000000003F
:1021A000000000000000000000000000000000002F
:1021B000000000000000000000000000000000001F
:1021C000000000000000000000000000000000000F
:1021D00000000000000000000000000000000000FF
:1021E00000000000000000000000000000000000EF
:1021F00000000000000000000000000000000000DF
:1022000000000000000000000000000000000000CE
:1022100000000000000000000000000000000000BE
:1022200000000000000000000000000000000000AE
:10223000000000000000000000000000000000009E
:10224000000000000000000000000000000000008E
:10225000000000000000000000000000000000007E
:10226000000000000000000000000000000000006E
:10227000C10D21000159200025592000454B2000A7
:10228000895B2000D5452000C10D210008B5094B10
:10229000FF221A600848094A4824E3690849121ACB
:1022A00098470848084AA3690021121A984701F084
:1022B00077FEFEE7B4200D40400000200D0700200F
:1022C000C844210010070020E73A002010B504465A
:1022D000436E9847034BE06E19780022BDE810402A
:1022E00005F05AB9D23A00202DE9F3470C461746BB
:1022F0001E46002B00F0698191F8B0341BB101F546
:1023000095600EF074FD94F8B1346BB93B78012EF2
:1023100084F8B134D4F8AC3403F10103C4F8AC341C
:1023200000F05381012500E0002594F8B7345BBB31
:102330007819B54280F04981D4F8AC3494F8B824C7
:1023400001330132052B10F8011B05F10105C4F81A
:10235000AC3484F8B82405D9204680210022FFF748
:10236000B5FF32E194F8B634B4F8B2E401F07F027C
:1023700002FB03E2DB0184F8B6340B06A4F8B224B6
:10238000D7D4012384F8B734B4F8B224B2F5007F6F
:1023900036D994F8B13403F0F003302B30D0D4F8B0
:1023A000AC3401321E449642C4F8AC64C0F00D81D6
:1023B00008E102F0F002302A2CD094F8B904C5EB01
:1023C0000608C0F50073984528BF9846204479193F
:1023D000424600F2BA400DF065FED4F8AC3494F8F1
:1023E000B9244344424484F8B924C4F8AC34454485
:1023F0000022D1B2414502F10102FAD3B54262D2C4
:10240000B4F8B224D4F8AC340132934294F8B12435
:10241000CFD35EE094F8BF26002ACED194F8BE2632
:10242000A2B97A5D691C1202581CB142A4F8BA26FE
:10243000C4F8AC0445D2795C02330A43C4F8AC3426
:1024400001230235A4F8BA2684F8BE36B4F8BEA635
:10245000BAF1010FB1D1B4F8BC06B4F8BA36C5EB85
:1024600006081A1A904528BF904620441FFA88F99A
:1024700079194A4600F2C4600DF014FEB4F8BC2687
:10248000D4F8AC344244B4F8BA1692B24B449142F8
:102490004D44C4F8AC34A4F8BC260ED16318002215
:1024A00084F8BFA683F8C426B4F8B234023B5B1AA2
:1024B0009BB2A4F81037A4F81237012384F80E3722
:1024C0007BE70D4679E7B4F8B2240132934297D204
:1024D0007BE002F0F003502B6FD006D8302B38D0C1
:1024E000402B45D0202B6DD118E0702B65D002D841
:1024F000602B62D066E0902B4FF0010246D0B02BEB
:1025000060D184F8992294F8BB3494F8BA24204618
:1025100043EA0223A4F8B43403214BE094F8BB341B
:102520002BB12046822104F2BB42FFF7CFFEE18AA5
:10253000012384F8993204F11800C901254A234681
:1025400004F028FE0823002184F8603020460A4663
:1025500036E004F2BA43C4F8083794F8B934204698
:10256000A4F80C370023A4F812370EF04AFC29E037
:10257000012384F8993294F8BA2494F8BB342046A5
:1025800043EA0223A4F8B434052113E084F8992225
:1025900094F8BB3494F8BA24204643EA022394F812
:1025A000BC24ADF804308DF80620A4F8B434022120
:1025B00001AA05E004F2B44202E020468421002290
:1025C000FFF784FE012384F8B034002002B0BDE898
:1025D000F08700BFD925200010B590F838300246AA
:1025E0008BB100F22C74022380F8603020460FF08B
:1025F000DCF9204608F064FA2046BDE810400021CE
:1026000034220DF029BE034B03481978BDE8104071
:1026100004F0C2BF982300206804002030B50446AF
:102620000523002580F86030012385B0A0F86830CC
:10263000A0F89C5280F8385000F595600EF0D7FB5A
:102640000E4A04F1740302920D4A84F87452009306
:1026500004F22C754FF400730392214604F2A62273
:102660000193284608F0B2F92846B4F8282704F563
:10267000E36105B0BDE8304008F0DEB9E922200092
:102680008526200013B50C468DF80720042A3BD878
:10269000DFE802F0200303032D001C4B22461978CB
:1026A0001B4804F079FF032384F8603004F118001C
:1026B00004F0B2FD204601210DF10702FFF706FEEE
:1026C00020460EF0B6FB637D012B1DD12046FFF79F
:1026D000A5FF19E0062381F86030012381F87432E8
:1026E0000C4B224619780A4804F056FF0CE0B1F86A
:1026F0004E372BB9012381F8743201F174030B6753
:1027000004F1180004F06CFD02B010BD9F230020FE
:10271000680400209B23002038B51D4C2578002D2F
:1027200034D104F0C7FE1B4B18701B4B187004F01B
:10273000C1FE1A4B187004F0BDFE194B187004F05E
:10274000B9FE184B187004F0B5FE174B187004F062
:10275000B1FE164B187004F0ADFE154B187004F066
:10276000A9FE144B187004F0A5FE134B1870134B00
:10277000187004F09FFE124B187012480EF0BEFF46
:102780001148294604F030FF0123237038BD00BFF3
:10279000A0230020A3230020992300209B230020B6
:1027A0009E230020A1230020A22300209C230020A0
:1027B00098230020D23A00209F2300209A23002053
:1027C0009D2300202407002068040020F8B51F4640
:1027D000137804460E46154633B34FF4EC620021DD
:1027E0000DF03AFD294604F10C000EF089FBBDF80E
:1027F0001820012300256375A4F8A422A4F86830EA
:1028000004F595606766E666A4F89C5284F8385033
:102810000EF0EDFA84F87452FFF77EFF034821466C
:102820000EF08DFF2846F8BD8220F8BD2407002059
:102830007FB5044690F8600003281ED8E38204F1B7
:1028400074032367002384F89932237DC4F8141796
:1028500043F00203A4F828272375084604F5E3662D
:1028600069460FF0D6F89DE80F0086E80F00044B8C
:1028700004481978224604F08FFE002004B070BD91
:10288000A32300206804002090F860300246082B43
:1028900007D1092380F86030024B0348197804F00F
:1028A0007BBE70479E230020680400202DE9F34181
:1028B0008DF8071040F2A741038806468B42154663
:1028C00000F01283B3F5956F0CD240F282418B4237
:1028D0001ED040F299418B4200F03687002B40F029
:1028E0009D8057E040F2C6418B4200F0E58305D859
:1028F00040F2B9418B4200F06A838FE040F2D3414D
:102900008B4200F0F284B3F59C6F00F0F08585E017
:10291000C44B9DF807201B789A4207D1C24B28462A
:102920001D600A2385F860300EF083FABF4B9DF8D6
:1029300007201B789A4204D1BB4B28461D60FFF745
:102940006DFEBB4B9DF807201B789A4225D0B94AF3
:102950009DF807301178994200F0B782B64B9DF888
:1029600007201B789A4200F02283B44B9DF8072081
:102970001B789A4200F09083B14B9DF807201B789A
:102980009A4200F0A284AF4B9DF807201B789A4230
:1029900000F09D8540F282433CE0A34B1D60B5F8FA
:1029A000A432A5F8543795F87432012BCFD1002307
:1029B000A5F89C329C4F3C68B4F89C32B3F5D17FAB
:1029C00000F08B8157D8B3F5CD7F00F00A8132D863
:1029D00040F29712934200F0D980B3F5CC7F22D217
:1029E000002B00F08E80B3F5CA7F40F06A8294F825
:1029F0007432002B40F0B3803B6893F860300A2BB0
:102A0000A5D0914B00221868904B197804F0C4FDB2
:102A100040F299433380012000F040BF002333800F
:102A2000032000F03BBF00F0BF8040F299129342B8
:102A300000F0C88045E240F29D12934200F01481FC
:102A4000B3F5CF7F09D240F29B12934200F0D780BA
:102A5000B3F5CE7F00F0E18033E240F29F12934263
:102A600000F01E81B3F5CF7F40F20C81B3F5D07F2B
:102A700000F0248125E240F2B312934200F0A281DB
:102A8000B3F5DA7F20D240F2A712934200F05A81C8
:102A9000B3F5D47F09D2B3F5D27F00F0348140F290
:102AA000A512934200F03E810BE240F2A91293423C
:102AB00000F06581B3F5D47F40F2528140F2AB1251
:102AC000934200F06D81FCE1B3F5DD7F00F0BC8145
:102AD00009D8B3F5DA7F00F0848140F2B71293424F
:102AE00000F09081EDE1B3F5DF7F00F0CD81B3F52B
:102AF000E57F00F0CE8140F2BB12934240F0E181CD
:102B0000B1E1228A102384F8783202B1023202F154
:102B10000C03B4F8542002B102321344B4F85C2020
:102B200002B102321344B4F8402002B1023213441D
:102B3000B4F8482002B102321A44C4F87C2204F5E9
:102B4000207004F521710EF03FF994F88432042BC3
:102B500005D9204681210022FFF7B8FBB1E12046CC
:102B600094F878120EF095F920B14FF4CA73A4F8D6
:102B70009C323CE7204604F5207194F884220EF044
:102B800098F940B140F29713A4F89C3294F874324B
:102B9000002BEFD130E7204600210EF07AF940B14A
:102BA0004FF4CC73A4F89C3294F87432002BF2D119
:102BB00022E7204606210EF06CF940B140F299134D
:102BC000A4F89C3294F87432002BF2D114E720461A
:102BD0001F4906220EF06DF940B14FF4CD73A4F8F1
:102BE0009C3294F87432002BF1D105E72046032182
:102BF0000EF04FF940B140F29B13A4F89C3294F8C8
:102C00007432002BF2D1F7E62046217D0EF041F917
:102C100000B34FF4CE73A4F89C3294F87432002BB6
:102C2000F2D1E9E69F23002020070020A323002003
:102C30009B2300209E23002098230020A123002016
:102C4000A22300209C230020980800209D23002020
:102C5000EA312100E18A2046090A0EF01AF940B152
:102C600040F29D13A4F89C3294F87432002BF1D1F9
:102C7000C2E62046A17D0EF00CF940B14FF4CF73AF
:102C8000A4F89C3294F87432002BF2D1B4E62046BA
:102C900000210EF0FEF840B140F29F13A4F89C32E0
:102CA00094F87432002BF2D1A6E62046217C0EF077
:102CB000F0F840B14FF4D073A4F89C3294F8743219
:102CC000002BF2D198E62046E168228A0EF0F1F856
:102CD00040B14FF4D173A4F89C3294F87432002BB5
:102CE000F1D189E6237D5A0704D494F91430002BDE
:102CF0005BDA5EE0204600210EF0CBF840B14FF4E5
:102D0000D273A4F89C3294F87432002BF2D173E69B
:102D1000204694F840100EF0BCF840B140F2A513E4
:102D2000A4F89C3294F87432002BF1D164E620466A
:102D3000E16BB4F840200EF0BCF840B140F2A713AC
:102D4000A4F89C3294F87432002BF0D154E620465B
:102D500000210EF09EF840B14FF4D473A4F89C32D9
:102D600094F87432002BF2D146E6204694F84810CD
:102D70000EF08FF840B140F2A913A4F89C3294F8F9
:102D80007432002BF1D137E62046616CB4F848204C
:102D90000EF08FF80028A8D040F2AB13A4F89C32B4
:102DA00094F87432002BEFD126E6237D5B0642D4E3
:102DB0002DE0204600210EF06CF840B140F2B31334
:102DC000A4F89C3294F87432002BF2D114E6204619
:102DD00094F854100EF05DF840B14FF4DA73A4F893
:102DE0009C3294F87432002BF1D105E62046216D17
:102DF000B4F854200EF05DF80028D6D040F2B71396
:102E0000A4F89C3294F87432002BEFD1F4E52046FC
:102E10000EF02EF8072384F86030201D4FF4A061D7
:102E20000EF003FC04F595600DF0E1FF4FF4E5733F
:102E3000A4F89C322DE0204600210EF02AF840B183
:102E40004FF4DD73A4F89C3294F87432002BF2D165
:102E5000D2E5204694F85C100EF01BF840B140F229
:102E6000BB13A4F89C3294F87432002BF1D1C3E563
:102E70002046A16DB4F85C200EF01BF80028C6D0E7
:102E80004FF4DF73A4F89C3294F87432002BEFD126
:102E9000B2E594F8993204F10408012B07D14046B9
:102EA0000EF0D5FB48B12046FFF7EEFC05E04046AA
:102EB0000EF0CDFB0028F2D19EE504F595600DF0F3
:102EC00096FF0023A4F89C3241E5BF4B1D6095F8A6
:102ED0006030092B7FF442AD95F87432012B61D13B
:102EE0000023A5F89C320BE0B84B9DF807101B7827
:102EF0008B4200F03F84B64B1B788B4240F24484F7
:102F000040F2E512B04F3C68B4F89C32934212D0C4
:102F1000B3F5F37F01D22BB137E01BD0B3F5F87FC7
:102F20002AD032E02046E0210DF0B3FF48B140F254
:102F3000E513A4F89C3294F87432002BF2D100F01F
:102F40002EBC204600210DF0A4FF48B14FF4F373CE
:102F5000A4F89C3294F87432002BF2D100F01FBC1C
:102F600020460DF085FF201D4FF480710EF05DFBB3
:102F70004FF4F873A4F89C3294F874322BB9201DE6
:102F80000EF065FB002800F00A840023A4F89C32B0
:102F900038680DF04EFF386801210DF10702FFF788
:102FA00095F9DBE42A468B4804F0F6FAD6E4864B22
:102FB0001D6095F87432012B7FF4D7AC95F8603022
:102FC000082B7FF4D2AC0023A5F89C320BE07F4B9A
:102FD0009DF807101B788B4200F0CC837C4B1B784C
:102FE0008B4240F2ED8340F2D221774A14681746B3
:102FF000B4F89C328B4214D001D84BB148E040F277
:10300000D32293421BD040F2DE2293422FD03FE0E6
:103010002046C0210DF03DFF40B140F2D223A4F87C
:103020009C3294F87432002BF2D1D3E32046002175
:103030000DF02FFF40B140F2D323A4F89C3294F856
:103040007432002BF2D1C5E320460DF011FF0123AD
:1030500084F8383004F595600DF0C9FE201D4FF45A
:10306000A0610EF0E2FA40F2DE23A4F89C3294F85C
:10307000B0343BB104F595600DF0B9FE002384F83F
:10308000383005E0201D0EF0E2FA0028F2D1A1E36D
:103090000023A4F89C3268E44B4B1D6095F8743211
:1030A000012B7FF469AC95F86030082B7FF464AC99
:1030B0000023A5F89C320BE0444B9DF807101B78C9
:1030C0008B4200F05783424B1B788B4240F2938334
:1030D00040F216223C4B1C689846B4F89C7297420A
:1030E00000F084800ED8B7F5047F48D001D817B31C
:1030F000E6E040F213239F4252D040F215239F4254
:103100005CD0DDE040F21B239F4200F09F80B7F5CA
:10311000077F08D2B7F5067F78D040F219239F4287
:1031200000F08380CCE000F0A08040F225239F4295
:1031300000F0B080C4E0B4F88C228223053284F819
:103140007832C4F87C2204F5207004F521710DF06A
:103150003BFE94F88432042B07D9204681213A465D
:10316000FFF7B4F8A4F89C7206E4204694F87812AD
:103170000DF08FFE40B14FF40473A4F89C3294F824
:103180007432002BF1D140E3204604F5207194F80D
:1031900084220DF08EFE40B140F21323A4F89C323D
:1031A00094F87432002BEFD12FE3204600210DF06C
:1031B00070FE88B140F21523A4F89C3294F8743262
:1031C000002BF2D121E300BF200700209F23002025
:1031D0009923002068040020204694F886120DF000
:1031E00058FE40B140F21623A4F89C3294F8743291
:1031F000002BF1D109E3B4F88C122046090A0DF036
:1032000048FE40B14FF40673A4F89C3294F874322F
:10321000002BF0D1F9E2204694F88C120DF039FE23
:1032200040B140F21923A4F89C3294F87432002B78
:10323000F1D1EAE22046D4F88812B4F88C220DF0DD
:1032400038FE40B140F21B23A4F89C3294F874324B
:10325000002BEFD1D9E2204694F898120DF019FE18
:1032600040B14FF40773A4F89C3294F87432002BE9
:10327000F1D1CAE220460DF0FBFD201D4FF4A06104
:103280000EF0D3F904F595600DF0B1FD40F2252361
:10329000A4F89C3294F89932271D012B0AD13846A4
:1032A0000EF0D5F904F595600DF0A1FD002384F82A
:1032B0006A3005E038460EF0CAF90028EFD1A4E2E2
:1032C0000023A4F89C32FFF757BBC84B1D6095F84C
:1032D0007432012B7FF457AB95F86030082B7FF4E4
:1032E00052AB0023A5F89C320BE0C14B9DF80710B0
:1032F0001B788B4200F03E82BE4B1B788B4240F223
:103300009682BA4B1C689846B4F89C72B7F5157F44
:103310007DD011D840F24F239F424AD0B7F5147F99
:1033200001D20FB3CEE040F251239F4252D040F27F
:1033300053239F425CD0C5E040F257239F4200F0E8
:103340008580B7F5167F04D240F256239F426ED097
:10335000B8E040F259239F4200F0898040F2622396
:103360009F4200F09980ADE0B4F88C22A223043291
:1033700084F87832C4F87C2204F5207004F52171B9
:103380000DF022FD94F88432042B08D920468121C7
:103390003A46FEF79BFFA4F89C72FFF7F4BA20466A
:1033A00094F878120DF075FD40B140F24F23A4F867
:1033B0009C3294F87432002BF1D142E2204604F59D
:1033C000207194F884220DF074FD40B140F2512335
:1033D000A4F89C3294F87432002BEFD131E22046ED
:1033E00000210DF056FD40B140F25323A4F89C3269
:1033F00094F87432002BF2D123E2204694F886121E
:103400000DF047FD40B14FF41573A4F89C3294F8C9
:103410007432002BF1D114E2B4F88C122046090A60
:103420000DF037FD40B140F25623A4F89C3294F8D9
:103430007432002BF0D104E2204694F88C120DF087
:1034400028FD40B140F25723A4F89C3294F874321E
:10345000002BF1D1F5E12046D4F88812B4F88C2283
:103460000DF027FD40B140F25923A4F89C3294F8A6
:103470007432002BEFD1E4E120460DF0F9FC201D61
:103480004FF4A0610EF0D1F804F595600DF0AFFC9B
:1034900040F26223A4F89C3294F89932271D012B44
:1034A0000AD138460EF0D3F804F595600DF09FFC74
:1034B000002384F86A3005E038460EF0C8F800288A
:1034C000EFD1BEE10023A4F89C32FFF75CBA474B72
:1034D0001D6095F87432012B7FF45CAA95F860307A
:1034E000082B7FF457AA0023A5F89C320BE0404B31
:1034F0009DF807101B788B4200F03C813D4B1B78F8
:103500008B4240F2B081394D2C68B4F89C32B3F54F
:10351000267F00F09C8011D840F2932293425FD026
:10352000B3F5257F01D223B309E140F295229342FE
:103530006ED040F2972293427AD000E140F29D2271
:10354000934200F0B58009D840F29A22934200F0ED
:103550008F80B3F5277F00F09C80F0E040F2A2223C
:10356000934200F0B68040F2B322934200F0D18043
:10357000E5E094F8982294F89A12530043F030034F
:10358000DBB2012984F8783204BF43F0010384F8E8
:103590007832B4F88C12D4F894320B440AB902335E
:1035A00000E00433C4F87C3204F5207004F5217186
:1035B000D4F87C220DF008FC94F88432042B05D951
:1035C000204681210022FEF781FEB8E0204694F8D3
:1035D00078120DF05EFC78B140F29323A4F89C328F
:1035E00094F87432002BF1D147E100BF200700208E
:1035F0009F23002099230020204604F5207194F891
:1036000084220DF056FC40B140F29523A4F89C3280
:1036100094F87432002BEFD12FE1B4F88C122046CD
:10362000090A0DF036FC40B140F29723A4F89C3211
:1036300094F87432002BF0D11FE1204694F88C12DC
:103640000DF027FC40B14FF42673A4F89C3294F897
:103650007432002BF1D110E12046D4F88812B4F86E
:103660008C220DF026FC40B140F29A23A4F89C3243
:1036700094F87432002BEFD1FFE094F89832E3B164
:10368000204600210DF005FC40B14FF42773A4F84B
:103690009C3294F87432002BF2D1EEE0204694F87C
:1036A00086120DF0F6FB40B140F29D23A4F89C3247
:1036B00094F87432002BF1D1DFE02046D4F8901258
:1036C000B4F894220DF0F5FB40B140F2A223A4F827
:1036D0009C3294F87432002BEFD1CEE020460DF0EE
:1036E000C7FB201D4FF4A0610DF09FFF94F89822B6
:1036F0002AB96C4BE06E197803F04EFF18E0012AEE
:1037000016D104F595600DF072FB40F2B323A4F8D6
:103710009C3294F89932271D012B03D138460DF0C5
:1037200096FF05E038460DF092FF0028F6D1A4E0A0
:1037300004F595600DF05BFB002384F86A300023EC
:10374000A4F89C32FFF726B9574B9DF807101B7859
:103750008B420FD0554B1B788B423FF62BA9544B15
:103760001B788B42FFF426A9524B186803F014FF14
:10377000FFF720B9504B0A221B68022083F8602013
:103780000022A3F89C2289E0494B1B788B42FFF46E
:10379000B7AB484B186803F0FFFEFFF7B1BB3B68BF
:1037A00093F860300A2B3FF4F3AB424B00221868C9
:1037B000424B197803F0F0FE40F2A743FFF72AB915
:1037C0003B4B1B788B42FFF40EAC3A4B186803F06E
:1037D000E3FE08E43B6893F86030082B7FF4C5A84B
:1037E000344B00221868354B197803F0D5FE40F2AF
:1037F000B943FFF70FB92E4B1B788B42FFF468AC2F
:103800002C4B186803F0C8FE62E4D8F8003093F837
:103810006030082B7FF4B0A8264B00221868274B95
:10382000197803F0B9FE40F2C643FFF7F3B8204B16
:103830001B788B42FFF465AD1E4B186803F0ACFE9D
:103840005FE5D8F8003093F86030082B7FF49BA830
:10385000184B00221868194B197803F09DFE40F2AE
:10386000D343FFF7D7B8124B1B788B42FFF44BAE14
:10387000104B186803F090FE45E62B6893F8603013
:10388000082B7FF487A80B4B002218680B4B197884
:1038900003F082FE4FF49C63FFF7BCB802B0BDE8B2
:1038A000F08100BFD23A00209F23002099230020FE
:1038B0009A23002098080020200700209D23002044
:1038C00070B51E4690F860300446082B20D190F861
:1038D0006A500121F5B980F86A10B0F86810C0F894
:1038E0008822023189B2A0F86810A0F8861210462A
:1038F0000CF0DEFD084BA4F88C0284F8986284F882
:10390000995219782246054803F046FE284670BDB4
:10391000812070BD084670BDA123002068040020EE
:1039200070B51E4690F860300446082B2BD190F8F5
:103930006A5001214DBB80F86A10B0F868109DF8FC
:103940001830023189B2A0F86810A0F8861280F809
:103950009A32C0F8882210460CF0AAFD049BA4F805
:103960008C02C4F894329DF81430C4F8906284F844
:103970009832074B84F8995219782246054803F08B
:103980000BFE284670BD812070BD084670BD00BF8B
:103990009C23002068040020812810B50C461DD10E
:1039A000104A00201368052123F02003136052F809
:1039B000203C23F0200342F8203C082201F06AF862
:1039C000094BFF221A60094B00201870084B14B1F4
:1039D00001221A7010BD1C70204610BD4FF0FF3040
:1039E00010BD00BF20940D4080900D40A523002005
:1039F000A42300202DE9F84F431E022B074600F2B6
:103A0000B1805A4E3378002B40F09E8001233370F2
:103A1000574B584D1B78584C002B00F09B802B685F
:103A200043F020032B60FF23236000F091FD8046CC
:103A300000F08EFD514BC8EB0303C34202D500F0EA
:103A400017FFF5E7002105224D480CF005FC002387
:103A5000236000F07DFD804600F07AFD494BC8EB05
:103A60000303C34202D500F003FFF5E74FF000085F
:103A7000C146FF232360142000F046FD2B6823F08D
:103A800020032B6023685FFA83FA4FF0000B236852
:103A90005FFA8BF0534508D101200BF1010B00F0C8
:103AA00033FDBBF1FF0FF2D158462368FF285FFAC0
:103AB00083FA1CD0B9F1030F12D919F0010F0FD1FD
:103AC0002F494FEAD8028B5C08284FEA4303DBB248
:103AD00088BF43F0010308F101088B545FFA88F8AE
:103AE00009F101095FFA89F9B9F1550FCDD1B8F1A2
:103AF000270F2FD9224B59781A780A4499780A440B
:103B0000D9780A441979D2B2914223D12A68022F76
:103B100022F020022A604FF0FF0222600BD0032F18
:103B200015D098780022DB7800F07F00327003EB2C
:103B30000020BDE8F88F18785B7803EB00200023A5
:103B4000337080B2BDE8F88FFF20BDE8F88F002009
:103B5000BDE8F88F2B6823F020032B60FF23236040
:103B6000002333704FF0FF30BDE8F88FA52300200D
:103B7000A423002000940D4080900D4000E0FFFF42
:103B8000A623002071FDFFFF38B50C46054610B98D
:103B90004FF0FF3038BD0029FAD00320FFF72AFF8D
:103BA0000130F5D0084A0949937803F07F00D378B3
:103BB00003EB00232B60002053780870117803EB8F
:103BC00001239BB2236038BDA6230020A52300203B
:103BD000813801289ABF024B18780020704700BF37
:103BE000AB23002010B5038804466BB1FA2B03D039
:103BF00000230380032010BD822907D10DF0A0F916
:103C0000034B00201B689847FA232380012010BD36
:103C1000B02D0020014803F0FFBC00BF7804002055
:103C200030B5812887B0039105D0431E032B3DD9C1
:103C30004FF0FF3418E159B38D4B02200146024684
:103C40000093032302F002F88A4B00221A60032437
:103C5000A02305A802218DF814308DF815400DF031
:103C60005BF90028E4D1292005A902F085F8002895
:103C7000DED19DF8143003F00F03A342D8D1AA205F
:103C800005A901220DF06BF9002800F0AE80CFE706
:103C9000A0238DF8151005A802218DF814300DF021
:103CA0003BF904460028C3D1734B42E0724B1B78AA
:103CB000002BBDD0032813D1704A05A81368022138
:103CC00023F001031360A6238DF8143000238DF830
:103CD00015300DF021F9003018BF01204442C3E037
:103CE000042828D112290D4601D00229A0D8A123E9
:103CF00005A802218DF814308DF815500DF00CF93F
:103D00000446002894D1122D03D15D4B01221A7074
:103D100008E0012D0AD0022D04D0002D40F0A4802F
:103D2000584B06E0574B02221A709DE0554B1D7010
:103D30009AE01C7098E09DF80C3001288DF8153041
:103D40009DF80D308DF8163001D1A42302E0022831
:103D500002D1A2238DF8143005A803210DF0DCF860
:103D600000287FF465AFA6238DF8143005A8122330
:103D700002218DF815300DF0CFF8044600287FF4AD
:103D800057AF414A41481368032123F001031360F0
:103D900052F8203C23F0010342F8203C52F81C3C2E
:103DA00023F0010342F81C3C52F8183C23F00103B5
:103DB00042F8183C52F8143C23F0010342F8143C3A
:103DC000224600F009FE2146314803F00DFC2B4A43
:103DD00003201368214643F001031360042200F01E
:103DE00059FE032000F06AFD3EE09DF8143003F018
:103DF000F003502B7FF41CAFA12005A901220DF088
:103E0000AEF800287FF414AF9DF814301C4A03F07C
:103E1000100111701B4A03F003031370A4238DF8E3
:103E2000143005A8FF2321468DF815308DF8163083
:103E30000DF072F800287FF4FBAEA2238DF8150078
:103E40008DF81600214605A88DF814300DF064F8A1
:103E500000287FF4EDAE0DF073F8044600287FF4DF
:103E6000E7AE0122044B5FE7204607B030BD00BF3C
:103E7000A0860100B02D0020AB23002010C40D400F
:103E8000AC230020AD23002020C40D40153C2000B1
:103E90007804002007B53E4B1B7813B94FF0FF3074
:103EA00073E00128FAD1AC2001A902220DF057F8E5
:103EB0000028F3D1AE200DF1060102220DF04FF8DB
:103EC0000028EBD19DF805309DF804209DF80710DF
:103ED00042EA03229DF8063043EA01232D4909787E
:103EE00002299CBF2C4830F811002C49097801B9EF
:103EF000000142435843920A4FEA90231ABF9902A5
:103F0000B1FBF2F1114601314908402905D84FF4BF
:103F1000F97050434FF4D9722FE0802905D84FF43F
:103F20000570504340F2D12227E0C02905D840F265
:103F30003F20504340F27B321FE0B1F5807F05D82F
:103F40004FF41C70504340F2FE3216E0B1F59C7FF6
:103F500005D840F26F1050434FF4FE720DE0B1F5FA
:103F6000CD7F03D8D2205043FB2206E040F29A20B6
:103F7000814205D818205043122202FB130000E0B2
:103F8000002000F50050C0F38F3003B05DF804FB53
:103F9000AB230020AD230020E4312100AC2300201E
:103FA000F7B500F06DFC00F067FD00F0BDFC00F01F
:103FB0006FFA01F0D7FD0DF036FB00F055FD00F073
:103FC000C9F801200CF0E7FF03F082FA00F044FC8E
:103FD000002000F055FB012000F052FB4949002071
:103FE00000F024FC03F0A6FB0DF00AF804200CF00E
:103FF000D2FF45480DF00DF944480DF00AF900F0E4
:10400000E9F9002003F03EFC01F0A0FC404800214B
:1040100003F0EAFA03F088F80CF0E7FF00F0B4FDD3
:1040200000F0D0FD08F05CFF6846082101F0BEFDFD
:104030009DF807309DF80670364C43EA07276B461B
:1040400003CB20606160344802F07CFC0025615D98
:104050003248013502F076FC072D2E4EF7D1304D57
:10406000F179304802F06EFCEC6A4AF6CD3102205C
:10407000A04739460320A0471A210120A0476946DE
:1040800008226B6B0B209847274802F05BFC274BFC
:1040900018680DF0BEF8264802F054FC254B18684D
:1040A0000DF0B7F8244802F04DFC244B18680DF0D1
:1040B000B0F8234A336813607368536008F02EFC2D
:1040C0002048002103F090FA1F48002103F08CFAE9
:1040D0001E4B01219B68812098470DF073FA1C4804
:1040E0000DF066FA00F0BEFB02200CF054FF00F069
:1040F000BFFB03F005FA10F0FF0FF8D101F0CAFC86
:10410000F5E700BFF1762000353221004F32210063
:10411000C0040020DC3A00207432210092322100D9
:104120000C302100983221009E32210064302100A1
:10413000A532210070302100AC32210098302100DE
:10414000342F002064050020E0040020142F2100FB
:10415000D430210008B500F0DDF8024B00221A70BF
:1041600008BD00BFAE230020024A13781843107028
:1041700000F0F4B8AE230020034A137823EA0000CD
:10418000107000F0EBB800BFAE23002020B1012872
:1041900005D1044B18787047034B1868704700200E
:1041A000704700BFAF23002020900D4010B5094A92
:1041B0000020137801331370074B197803F0ECF9E2
:1041C000BDE81040054B06481968064A002302F076
:1041D000E1BF00BFAF230020D33A002050070020EA
:1041E00028070020AD412000812810B50C462AD0B8
:1041F000B0F5807F39D0802839D103F05BF91D4BB1
:104200001D4A18701368002023F00803136052F849
:10421000203C032123F0080342F8203C52F81C3CC8
:1042200023F0080342F81C3C52F8183C43F0080302
:1042300042F8183C042200F02DFC10480021032213
:1042400000F0CAFB13E00E4B1A6831B142F00802CD
:104250001A60002000F032FB05E022F008021A602C
:10426000084600F037FB204610BD064B19600120C0
:1042700010BD00BFD33A002020940D408942200099
:1042800010940D405007002008B50F480DF0DFF9DD
:10429000C0B108210C480DF0C8F90C4B196861B188
:1042A0000B4B00221A700B4B0B481B681BB90B4AB7
:1042B00002F070FF01E002F0AFFFBDE808400848DF
:1042C00003F0B4BA08BD00BF480700205007002023
:1042D000AF23002020900D4028070020AD41200092
:1042E000142F2100084A136823F00403136052F8C6
:1042F000203C43F0040342F8203C044B00221A60A7
:10430000034B01221A70704720C40D4010C00D40AD
:10431000B02300200D4A0E49136823F0C003136038
:1043200052F8203C43F0C00342F8203C094B0022E5
:104330001A600B6823F010030B6051F8203C43F027
:10434000100341F8203C044B1A60704720A40D4034
:1043500020C40D4000A30D4040C00D4000F00202FB
:1043600002F0FF010B4B12B1FF221A6000E019604E
:1043700000F0040202F0FF01074B12B1FF221A60A5
:1043800000E0196010F00100044B1ABFFF221A6010
:104390001860704700A20D4000A10D4040C00D40C4
:1043A000044B1868C0F30720030904BF1030C0B2E3
:1043B000704700BF1C300D40054B1868C0F3C21099
:1043C00001289ABFC0F1020040034FF4004070473B
:1043D00014300D402DE9F04788B0FFF7E1FF174B8F
:1043E00048251C68AB68074698476B688046984725
:1043F0000646FFF7E1FF054600F0D6FA824600F0D8
:10440000DFFA814600F086FAB60AC4F34003AD0A2B
:1044100004F0010402930690009601950394CDF8F0
:1044200010A0CDF814904146C7F3071207F00F0310
:10443000034802F087FA08B0BDE8F0871C300D4051
:10444000BA322100F8B500F083F80F4B0024D3E90D
:1044500000673A46B04238BF7A1C15460443C3E9A8
:104460000045DFF828E0DEE90001821B61EB07036D
:1044700012196B41CEE9002302F086FF18B1BDE8A6
:10448000F84002F011BFF8BD100700201807002007
:104490000F4B104A1A6053F8042C42F0050243F8FF
:1044A000042C53F8042C42F0020243F8042C0A4A6C
:1044B000136843F001031360084B00221A600422C2
:1044C00043F80C2C012243F8082C0F22DA627047C3
:1044D00014E000E047E8010008200D400C00034014
:1044E000034BD3E90023100A40EA0360704700BF82
:1044F00010070020034BD3E90023D00B40EA4340D0
:10450000704700BF18070020054B18601C3B1A6855
:1045100042F001021A601A68D207FCD4704700BF4B
:104520002800034010B5064C236823F001032360E4
:10453000FFF788FF236843F00103236010BD00BF2D
:1045400010E000E0014B1868704700BF54070020DE
:10455000074B084A196804331B681268120442EAC0
:104560000323054A0B43106843EA0060704700BF0D
:1045700040500D4048500D404C500D4010B5044681
:10458000114B1B68DB07FBD50CF03EFDFFF7E0FF8E
:10459000231A062BD8BFC41D0C4B220E1A60C4F37D
:1045A000074243F8042CC4F3072243F8082CE2B274
:1045B00043F80C2C0CF024FD054B91201C60BDE849
:1045C000104000F07BB900BF50500D404C500D40E2
:1045D0005407002008B501F043FA064B0022912051
:1045E0001A6000F083F9912000F074F9BDE80840EA
:1045F00003F01EB854070020064B1B681B075FBF63
:10460000054B186880F00800C0F3C00048BF0020C8
:10461000704700BF18C0004018D00040164A38B597
:104620002C2303FB00234FF6BF72DC680546236C86
:1046300062649BB213F050020DD0A369DB0609D46B
:104640000E4B53F825301BB12068C0B29847F4E7F1
:104650002368F2E738BD13F4D06F0BD04FF44073EA
:104660002363FF236360E36AE262E362236B43F048
:104670000103236338BD00BF242F21005807002009
:104680002DE9F04F012885B0064600F2BF802C24AA
:104690004443604B1D1995F920A005F12007BAF19C
:1046A000000F9946C0F2B28095F92230002BC0F27B
:1046B000AD80594801F046FA584A59F8043011685B
:1046C000EC680B43136051686B6895F921B00B439C
:1046D00053609168AB6895F822800B439360002388
:1046E000C4F8C83F2B690BEBCA021A6095F8233057
:1046F0005FFA88FC01939DF80430604619462A7DD4
:10470000CDF80CC0029300F0CFF9029BDDF80CC08D
:1047100019466046082200F0BDF94FFA88F8404972
:104720004FEA08389DF9042058F80100012303FAE4
:1047300002F2024348F801204FEA0A3A5AF801000F
:1047400003FA0BF202434AF801205022A263A26B43
:1047500095F8240042F4D062A263022262634FF40F
:1047600040722263AA696262EA69A2627022E2620E
:1047700042B2002A0C4614DB95F92510294D41EA76
:10478000C20129607979120315594FB2BB402B43FE
:104790001351002200F07EF9234A136843F40043CA
:1047A00013602C2303FB069393F8265020336FB23B
:1047B000002F1CDB93F807A0EDB25FFA8AF82846B9
:1047C000414601223F0300F06FF94FFA8AFA3A5945
:1047D000012303FA0AF313433B51082228464146BA
:1047E00000F058F9104A136843F4804313602C23F7
:1047F00003FB0696F26896F82800136B43F001035A
:10480000136305B0BDE8F04F00F058B805B0BDE83F
:10481000F08F00BF242F2100F945200028200D40F3
:1048200020940D4004410D4030D0004001289CBF31
:10483000014B43F82010704758070020012808D882
:10484000044B2C2202FB0030C3689A699206FCD408
:1048500019607047242F2100014B00221A60704715
:1048600000500D40014B08221A60704700500D4067
:10487000024BA0221A6050221A60704700500D406F
:10488000074A084B1A60084B80321A60074B803287
:104890001A60074B80321A60064B074A1A6070474D
:1048A00000E100E06C0700206007002064070020A2
:1048B0006807002008ED00E000202000044B4109BB
:1048C0001A6800F01F000123834042F8213070472E
:1048D0006C070020044B41091A6800F01F000123F7
:1048E000834042F82130704760070020044B4109A3
:1048F0001A6800F01F000123834042F821307047FE
:1049000068070020024B1868C0F38150704700BF51
:1049100004200D4008B5FFF7F5FF024B53F82000C7
:1049200008BD00BF7C2F210038B5164D164C2B68F2
:10493000032023F040032B602368062123F040036B
:104940002360012200F0A6F82B68012223F08003E7
:104950002B602368032023F080032360072100F0ED
:1049600099F80A4A0A4B1A600A4B0B4A19680A401E
:10497000002AF9D11A685101FCD41A685201FCD5F9
:1049800038BD00BF20C40D4000C40D40010102002D
:1049900000200D4004200D4000000101014B0822C1
:1049A0001A60704774200D40034B04481B6803F0E5
:1049B00007031841704700BF04200D400048E8017C
:1049C000034B04481B68C3F302231841704700BF20
:1049D00004200D400048E801024B02EBC10243F8FD
:1049E0002200704770070020F8B507460E46094DB3
:1049F000002405EB411547FA04F3DB07E1B204D5C7
:104A000055F824300BB1304698470134082CF2D1C8
:104A1000F8BD00BF700700202DE9F04780464FEA3F
:104A20000837DFF8409007F1804505F5592501F07A
:104A300017F8D5F8186457F809404FEAC80A24FA5D
:104A40000AF446EA0400E4B2C0B24146F6B204FAFF
:104A50000AF4FFF7C9FFC5F81C6447F80940BDE830
:104A6000F08700BF18970D400248002180220BF00C
:104A7000F3BB00BF70070020034A044B1A60044BCD
:104A8000803A1A60704700BF80400D40F407002054
:104A9000F0070020034B01EBC0011B6843F8212005
:104AA000704700BFF4070020034B01EBC0011B68F7
:104AB00043F82120704700BFF00700200E2870B592
:104AC0000BD1164B164E1C6844F002051D6035686C
:104AD00025F03F0343F001033360124E336823F0A7
:104AE000FF031A431143014331600F4B1B681B0640
:104AF000FBD50E4B0E4A1B6812680E2803F0FC0310
:104B000043EA022308BF064A9BB204BF1560034A6A
:104B10009BB208BF146018B270BD00BF34000144DE
:104B2000F486084008700D4000700D400C700D4078
:104B300010700D40024B1868B0FA80F040097047C1
:104B400000B7084010B58F20064CFFF7CFFE8F202E
:104B5000FFF7C0FE206818B102F05EFD002323605D
:104B600010BD00BFF8070020064A136843F0020397
:104B70001360536843F002035360936843F00203E9
:104B80009360704748200D4007B50C4800F0DAFFED
:104B9000FFF7EAFF0A4B1A6842F002021A6000228D
:104BA0000192019A0F2A02DC019A0132F8E71A6891
:104BB00022F002021A6003B05DF804FB354B2000BE
:104BC00054200D40064A136823F002031360536813
:104BD00023F002035360936823F00203936070474D
:104BE00048200D40014B1860704700BFF8070020B7
:104BF0002DE9F0473E4EA0B03468824688461546FF
:104C00001F46002C70D1022916D1AC4216DA1822A8
:104C1000482302FB04A14FEA8409DB690DEB441031
:104C2000984709F1030920AB03EBC90900220023CF
:104C300049E920230134E8E7012904D06D00B8F1E7
:104C4000020FEDB205D04823DB69684651462A01C0
:104C50009847284A012303211360274851600832EE
:104C600033601160016801F0030444451EBF21F068
:104C7000030148EA0101016003FA05F01F4C013805
:104C80001F49B8400860A4F58064C4F8000423609C
:104C90001C4BC3F800D0E3681B0C1B0443EA05154A
:104CA000E560194B1C68E407FBD51C68002C06DA8C
:104CB0004FF00043136000233360042015E01B68AD
:104CC00013F0804306D04FF080431360002333601D
:104CD00006200AE00324146033600B68034083421B
:104CE00014BF0620002000E0032020B0BDE8F087BC
:104CF00000B7084080B7084008B4084000B4084036
:104D000004B4084004B0084090B708402DE9F047CB
:104D1000434C894621689C46DDF82880BDF8203048
:104D2000BDF82C50DDF830E0002975D13D49012651
:104D30000E603D4E0327B2460221376021603B4999
:104D40000F603B4FC7F80090D7F80090B9F1000F03
:104D5000FADB384FD7F8009019F0005FB94607D05A
:104D60004FF000530B60002323600520BDE8F0875F
:104D70004AB11668304F3E6056687E609668BE60E5
:104D8000D7682E4A17602E4A002710F4E02F1060D3
:104D90005560976002F108021BD053600432C3B122
:104DA000A2F25C5201201060C2F804C0D360D9F8AE
:104DB00000309B07FBD51F4B1B68002B07DA4FF019
:104DC00000430B60002323600420BDE8F08702232A
:104DD0000B600123CAF80030BEF1000F08D0704606
:104DE000FFF700FF8F20FFF781FD8F20FFF766FDA3
:104DF0007DB1144A0123136009990C3242F8081C52
:104E00001560B8F1000F04D053610F4BC3F8008058
:104E10009D600020BDE8F0870320BDE8F08700BF5B
:104E200000B7084080B7084084B7084088B70840FA
:104E30000CB4084090B7084040B508404CB5084055
:104E400050B5084000B0084024B00840034B1A6831
:104E5000034B1A4214BF01200020704790B708404E
:104E6000010000E0F8B5204B204F1E684FF0604372
:104E70003B6005468F200C46FFF72CFD0020FFF716
:104E8000B1FE00221A4B96421A6027DB710027D42C
:104E9000B20027D405B9ECB1164B1B685B00FBD5FB
:104EA0005DB1154B1B682B60144B1B686B60144B7A
:104EB0001B68AB60134B1B68EB605CB1124B1B684B
:104EC0002360124B1B686360114B1B68A360114B7E
:104ED0001B68E36003233B600020F8BD0420F8BD9D
:104EE0000620F8BD0520F8BD90B7084088B70840F7
:104EF00000B7084050B5084040B5084044B50840E8
:104F000048B508404CB5084070B5084074B5084035
:104F100078B508407CB5084037B5114B05461C688C
:104F2000C4F340040CB9FFF71FFE102300210093C7
:104F3000019101202A462B460CF076F808B1FFF7C4
:104F40002DFD0CF086F8431CFBD008B1FFF726FDC1
:104F500024B903B0BDE83040FFF734BE03B030BD24
:104F600048200D4038B50B4B05461C68C4F340047F
:104F70000CB9FFF7F9FD012128460A460023FFF787
:104F800037FE08B1FFF70AFD1CB9BDE83840FFF74E
:104F900019BE38BD48200D40014B1B68184700BFA3
:104FA0008C2F21002DE9F04F1646284A89B014684D
:104FB0008346C4F340040F469DF84880DDF84CA0BA
:104FC0009DF85050DDF854901CB90793FFF7CCFDC5
:104FD000079B1FFA88F0B9F1000F1AD000218DE865
:104FE0008100029603970495059102205A460CF021
:104FF000ADF828B13CBB09B0BDE8F04FFFF7E2BD0A
:10500000FFF724FF0028FBD0504629460CF0BBF8E0
:10501000F0E72E448DE88100029603970495CDF8C1
:105020001490022049465A460CF0B3F80028E1D10A
:10503000FFF70CFF0028FBD03846314652462B467E
:105040000CF061F8D6E709B0BDE8F08F48200D40BC
:10505000084B93F90020002A09DB074AED21116073
:105060001160E32111601A7862F07F021A7001204A
:10507000704700BFB4230020388808400B4B1A68E3
:105080009207FBD41B685B065FBF094BED221A60D9
:105090001A60084B1B6813B1054BEF221A60064AD1
:1050A0000120137803F07F03137070474C8608408B
:1050B000388808402C860840B423002038B5A0F179
:1050C0000B04E3B20F2B054613D80B4B1B6813F0F0
:1050D0003F0302D0FFF7D2FF012304EB8404074A09
:1050E0000B3414600BB1FFF7B3FF054BE8B21D7032
:1050F00000E0FF2040B238BD488608403C860840AA
:10510000FB06002010B50B4B1B68990603D1FFF777
:105110009FFF012300E00023074A1268D207FBD556
:10512000064A1468C4F300140BB1FFF7A7FF20462A
:1051300010BD00BF48860840648608404C86084081
:10514000044B186800F02200A0F120035842584197
:10515000704700BF4C860840024B186800F04000C2
:10516000704700BF4C86084038B50C46002900F057
:105170008880102800F28780DFE800F0090F1A1CF1
:1051800023394253586F738585787A7C7F003F4B73
:105190001B68003318BF012370E03D4B05221B68DC
:1051A00003F07F030B3B93FBF2F30B33DBB265E0C1
:1051B000384B00E0384B1A68043B1B6843EA022373
:1051C0005CE000230B60354B354A1B6803F001039C
:1051D0000B601268900644BF43F002030B60314B32
:1051E0001B78002B4BD00B6843F0040346E02E4B9A
:1051F00000201B780860002B41D001230B6038BDD4
:105200002A4B1A680023D2B2294901EBC300007966
:10521000904202D851F8333030E001330E2BF3D1F5
:1052200028E0244B1B685BB2493B27E0224B1B68FC
:10523000990603D1FFF70CFF012300E000231F4A6A
:105240001268D207FBD51E4A1568493DEDB20BB175
:10525000FFF714FF6DB2256011E01A4B93F900308F
:105260000CE0194B1B7803F07F0307E00B2305E0EC
:105270001A2303E06FF0170300E0072323600020E8
:1052800038BD022038BD012038BD00BF2C86084043
:105290003C860840CC850840D485084000860840FC
:1052A00024860840B3230020FA06002040860840E8
:1052B0009C2F210058860840488608406486084094
:1052C00060860840B2230020B123002038B505468F
:1052D0000C46134B1B689B07FBD4124B93F9003011
:1052E000002B01DBFFF7B4FE0F4BEE221A60691EA4
:1052F0001A60A21C43F8102C2144022000F03EFB4F
:10530000013C0A4924012143022000F049FB02200C
:1053100000F050FB022000F065FB002038BD00BF0C
:105320004C860840B42300203888084002C001C0E1
:10533000F8B5214B93F90030002B0DDBFFF708F98E
:105340000446FFF785FEFFF703F96FF009031B1B07
:10535000C342F8D4012600E00026184B1B7823B97D
:10536000174D2B68990604D405E0FFF7CBFE002803
:10537000F6D10220F8BD134CE923236004272B68E3
:105380009A0707D4013F17F0FF0703D00620FFF765
:10539000BBF8F4E72B689B0704D4EE23236023605B
:1053A000012403E02C6814F00204FBD10EB1FFF7D6
:1053B00065FE2046F8BD00BFB4230020FA06002099
:1053C0004C86084038880840044B1A6810B142F0F7
:1053D000010201E022F001021A60704700860840D5
:1053E0000B280DD1082A0DD161B1074B083111F8F6
:1053F000012D43F8042F054A9342F8D1002070474D
:105400000120704702207047A4850840C4850840E9
:1054100070B5304E336813F0400308D02E4D2B6822
:10542000DCB21B0605D52D4BED221A601A60002058
:1054300070BD042CF7D9023C8C42F4DCE4B2032C9E
:1054400021D001190139032000F0A0FA631E24497C
:105450001B010320194300F0A3FA032000F0AAFA6D
:10546000032000F0BFFA032000F0C8FA0028FAD1A8
:1054700029681C4B4939C9B219702B681A4D180696
:105480002B70D0D506E02B6803702B6843702B6817
:105490008370EDE749B289B2042007F0F7FC297860
:1054A000032001F07F0107F0F1FC104B1B7873B96A
:1054B00033685A060BD5074B1B681B0603D50C48EF
:1054C00002F0AAF803E0054BED221A601A602046AC
:1054D00070BD00BF4C8608402888084038880840C6
:1054E00002C0010CB2230020B1230020B32300200E
:1054F000980400201E4B1870002831D01D4B1B68EB
:105500001B03FBD51C4B1A6842F002021A601A6892
:1055100042F001021A601A6817495007FBD50A6861
:1055200022F001020A601968134A4907FBD4116886
:1055300041F002011160116841F0010111601A6827
:105540005207FCD50D4A8D20136823F00403136025
:10555000D2F8A83123F00403C2F8A831FFF7BAB992
:10556000064A8D20136843F004031360FFF7A6B9C1
:10557000B323002004200D40048808408C86084096
:1055800010B50C4607285CD8DFE800F0040F1B1F9D
:10559000263C4256012903D1FFF75AFD002010BDD9
:1055A000002950D1FFF76AFDF8E7A1F10B030F2B9B
:1055B00049D8C8B2FFF782FD431C0CBF032000206E
:1055C00010BD8CB2E2B2214B02E08CB2204BE2B2B1
:1055D000240A1A605C60E1E731F0070333D101F07F
:1055E0000100FFF7F1FE1B4B14F0020F1A68C4F321
:1055F000800014BF42F0200222F020021A60FFF760
:1056000079FFCBE731F001001DD1134B197010BDAC
:1056100001F118031F2B16D80D231049DA0051F899
:105620003300844204DC8B181A790D4B1A60B5E7FD
:1056300013F1FF33F1D2B1E7CCB20A4B49341C600D
:10564000ACE7012010BD022010BD00BFC885084096
:10565000D085084024860840FA0600209C2F2100AF
:105660004086084058860840F8B5294F3D7815F027
:1056700001054AD1274B01241C605C609C60A3F5A6
:105680009323A3F51473F8221A600922C3F890211A
:10569000152270331A6003F59B230B2203F59E73CA
:1056A0001A60A3F59B23A3F5F07340221A601A68D1
:1056B0007F2642F020021A60D52243F81C5CDE628D
:1056C000DA61154B1878FFF7F9FC144B8E201E6039
:1056D000FFF7F4F8022000F079F91149022000F0F8
:1056E00055F9032000F072F90D49032000F046F946
:1056F0000C4B1878FFF7FEFE0B48294601F074FFAB
:105700003B78204623433B70F8BD0020F8BD00BF26
:10571000B4230020A8200D40FB06002094860840FA
:1057200028880840B32300209804002038B5038857
:105730000446CBB140F20342934203D000230380DE
:10574000032038BD194B18781A4628B11B7873B15D
:10575000174B1B7858060AD5822908D1137843B114
:10576000134B1A78520614D440F2034323800120CD
:1057700038BD07F035FB07F0C9FA8021FFF748FE76
:105780000028EDDD80B207F0A5FA0A4B1B699847A7
:10579000E6E700221A70084B1D68FFF76FFCFFF761
:1057A00063FFAB06E0D0FFF753FCDDE7B323002037
:1057B000B423002098302100488608400B282DE9AA
:1057C000F84F8A4611D1082A40F0828000297FD004
:1057D000414B01F1FF3A53F8042D0AF8012F3F4ADB
:1057E0009342F8D10020BDE8F88F0C286DD1042A2F
:1057F0006ED100296CD03A493A480B68DFF8EC903A
:1058000023F007030B600368DFF8E4B043F00803FC
:105810000360DBF80040D9F800200B68DFF8D4C043
:10582000DFF8D48023F070030B60D8F80050DCF868
:105830000030E4B2120244EA036392B2DFF8BCE043
:105840001A43EBB242EA03430024DEF8002044EAA4
:1058500003060B68D5B223F0070343F001030B6086
:1058600003682F4643F008030360DBF80000D9F813
:1058700000200B68120223F0700343F010030B604A
:10588000D8F80050DCF80030C1B241EA036392B2AC
:105890001A43EBB242EA0343DEF8002044EA03086D
:1058A0005FFA82F9FEF754FEB6EB080667EB0907CC
:1058B000F903054641EA5641F0030B4A00230AF07A
:1058C000E3F8281ACAF800008CE70120BDE8F88F39
:1058D0000220BDE8F88F00BFC8850840A8850840B1
:1058E00010880840048808400048E80118880840EB
:1058F0001488084020880840248808401C880840F4
:1059000008B5054B1B7813B9044801F085FE044B1C
:1059100000221A6008BD00BFB323002098040020B5
:1059200034880840064B07481A68042A1FBF0649F6
:105930000A7842F040020A7000221A6001F06CBE40
:105940002C88084098040020B423002010B5094C8E
:105950000021204640220AF07FFC074B01221A60FA
:105960002E205C60FEF7AAFFBDE810402F20FEF756
:10597000A5BF00BF0000002004F00F4003289EBF19
:10598000014B0001195070470000002003289EBF02
:10599000024B03EB00104160704700BF0000002085
:1059A00003289EBF024B03EB00108160704700BFCD
:1059B0000000002003289FBF034901230A68834099
:1059C0009CBF13430B60704728F00F4003289FBF14
:1059D000034901230A6883409CBF13430B6070474F
:1059E00020F00F4003289FBF034901230A6883402A
:1059F0009CBF13430B60704714F00F4003289FBFF8
:105A0000044B03EB0010806800F0070088BF002003
:105A1000704700BF00000020024B4FF0FF321A60B9
:105A2000704700BF04F50F40014B01221A60704718
:105A30004CF00F40094B1A6812F4801F1A46F9D136
:105A4000043B196821F4803119601168C903FCD442
:105A50001A6842F400321A60704700BF04200D40FB
:105A600010B50A4B1A681C4612F0030F0CD0084BF5
:105A70001A685101FBD41A685201FCD5FEF752FD99
:105A8000FFF7D8FF0023236010BD00BF58200D4052
:105A900004200D4038B5254B1C6814F03F0413D189
:105AA000234B53F8243023B1984768B10134052CB7
:105AB000F6D1204D2B783BB1FEF744FD0446FEF7AE
:105AC00047FD201A092801D830BF38BD002CFBD073
:105AD000194B1A6822F400321A60184A1168C90278
:105AE000FBD4196841F4803119601368DB03FCD5DD
:105AF000FEF72EFD201A092803D8BDE83840FFF72D
:105B000099BF63280E4C02D92B78022B00D00123B9
:105B1000236001F037FD20B1FFF78CFF00232360E5
:105B200038BDFEF70FFD0028CED1F5E748860840C6
:105B3000FC070020B523002000200D4004200D406C
:105B400058200D400023064A52F82310814206D007
:105B500011B942F8230070470133052BF3D1704788
:105B6000FC070020054B00221A60054A136843F029
:105B700004031360034B01221A70704758200D4034
:105B800010ED00E0B523002010B59020064CFEF784
:105B9000ADFE9020FEF79EFE206818B101F03CFD9E
:105BA0000023236010BD00BF1008002030B5184B43
:105BB0001A78431E3AB9174A1278122A03D1164AA4
:105BC00012784B2A03D001F52011273117E04A083B
:105BD00002F12814B4F1281F04D014F8015D03F871
:105BE000015FF7E701F5201127310023934205DA21
:105BF00011F801598418E5540133F7E730BD074A1D
:105C0000914204D011F8012903F8012FF7E730BDC4
:105C10002B0028002A00280029002800270028003F
:105C2000024A136843F010031360704720000240DB
:105C300014235843034B044A0344B3FBF0F3013BE2
:105C400013607047FF23F4000C0002402DE9F84375
:105C500007460E4615461C462A4ADFF8B4901368DC
:105C6000DDF8208043F001031360D9F800303220C2
:105C700043F00103C9F80030FEF746FCD9F80030C4
:105C8000214A23F00103C9F8003038038158012369
:105C900003FA06FE21EA0E018150290351F802C0E1
:105CA000A3402CEA030C41F802C0203250F802C095
:105CB0004CEA0E0E40F802E0885803438B503846F9
:105CC00031460022FEF7E6FE284621460022FEF776
:105CD000E1FE0E4B46EAC7021A6044EAC5025A606A
:105CE000384631460B22FEF7DFFE284621460C22BD
:105CF000FEF7DAFEFFF794FF4046BDE8F843FFF7F2
:105D000097BF00BF38200D4000940D402C410D403E
:105D100044200D40024B18600120FEF7F5BB00BF88
:105D200004000240024B186800F00100704700BFF9
:105D300004000240054B1868C0B2C30704D410F039
:105D4000120F08BF00207047002070470400024077
:105D500008B5074B4000186099600720FFF7DAFF8D
:105D6000044B1B68DB07FBD4BDE80840FFF7E2BF2C
:105D7000000002400400024040000A4B40F00100D5
:105D800010B5186007200C46FFF7C4FF064B1B68D0
:105D9000DB07FBD4FFF7CEFF10B9044B1B68237061
:105DA00010BD00BF00000240040002400800024095
:105DB0002DE9F0410F461446002A39D0002937D08A
:105DC000012A04D1BDE8F0410978FFF7C1BF1A4AA2
:105DD000430013600B78194D03202B60FFF79AFFE7
:105DE000A846174E3368D907FBD4FFF7A3FF18B1B5
:105DF000BDE8F041FFF79EBF0125631EAB420BDDFE
:105E00007B5D0120C8F80030FFF784FF3368DA07B4
:105E1000FCD40135EDB2F0E73C4414F8013C052018
:105E2000C8F80030FFF776FF3368DB07FCD4DFE704
:105E30008020BDE8F08100BF000002400800024061
:105E4000040002402DE9F0410F461446002A3AD0E2
:105E5000002938D0012A03D1BDE8F041FFF78CBFFB
:105E600043001A4A43F0010313600B20FFF752FF6F
:105E7000174B1A68984612F0010FF9D1FFF75AFF35
:105E8000E8B9144E012533683B70631EAB420BDD4D
:105E90000920FFF73FFFD8F80030DA07FBD433685A
:105EA0007B550135EDB2F0E70520FFF733FFD8F859
:105EB0000030DB07FBD433683C4404F8013CBDE808
:105EC000F041FFF737BF8020BDE8F08100000240BD
:105ED0000400024008000240124A70B515464FF017
:105EE000FF340023B2F9066056B1967A0C32002EC8
:105EF00008BF1C460133052BF4D1621C23460FD08A
:105F00000C225A43AB1898804FF0FF30A850CA8833
:105F1000DA804A7A1881C2F3C002DA72184670BD7C
:105F2000002070BD50080020F0B5224D06462F46D7
:105F30008FB00024B5F90630A3B101A8B5F904105B
:105F40000BF0AEF99DF80D3003F03603022B09D1AA
:105F500030460DF10E010AF0CDF918B90C2000FB06
:105F6000047024E00134052C05F10C05E2D1002079
:105F700004B2214601A80BF093F99DF80D5005F0ED
:105F80003603022B0AD130460DF10E010AF0B2F9A8
:105F900020B9204601A9FFF79FFF08E02046BDF980
:105FA0000A102A460BF0B0F91F28E1DD00200FB0DF
:105FB000F0BD00BF500800201E4B2DE9F041074600
:105FC0004FF6FF7498461E888EB035B21F2D0DDC3B
:105FD00001A829460BF064F99DF80D2093071CD405
:105FE00023B2013306D1EB191F2B02DD4FF6FF70F0
:105FF0001CE034462846BDF90A100BF085F923B29F
:10600000DA1982420646E0DCB8F9002020469A42BE
:1060100002BF084B3F191F8008E02846BDF90A104F
:106020000BF072F94FF6FF740646CEE700B20EB0E1
:10603000BDE8F081F01C002070B504468EB00E461D
:1060400001A8214615460BF02BF99DF80D3003F001
:106050000602022A02D04FF0FF3041E003F0200296
:1060600002F0FF01002AF6D176B99DF80D3001A8A3
:1060700043F0040321468DF80D300BF03DF9194A29
:106080000023137055B916E01B07EED5BDF90400C7
:106090000A46FFF7D1FF0028E7DADCE7124A1A4484
:1060A000516829B1B1F90410A14204BF0021117255
:1060B0000C333C2BF2D10D4B03F13C01B3F904201E
:1060C0000C33A24201BF4FF6FF7223F8082C0022C6
:1060D00003F8022C08BF23F8062C8B42EED10020D7
:1060E0000EB070BDB6230020140800205008002018
:1060F0002DE9F04F95B00190884602933AB14046A1
:10610000FFF75AFF411C044640F0DD8004E0FFF732
:106110000BFF0028F3D0D4E07B4A13780392002BC6
:1061200040F0CF809A46082600230593ADF818303A
:10613000764A774BBAF1000F03D1A3F800A082F89A
:1061400000A01FFA8AF915784FEAC907BFB255B106
:106150001D882AB2072A15DD0823ADF814306C4BD0
:10616000083D1D8071E01C8822B2072A0BDD082340
:10617000083CA4B2ADF81630654BA2B2072C1A80C9
:1061800064D962E00024B3F800B0BB441FFA8BFB73
:106190000FFA8BF133B299422DDA07A80BF080F891
:1061A0005A4900230B709DF8253003F00602022A9D
:1061B00003F020020AD14AB9BDF8222001239344FA
:1061C00015440B701FFA8BFBADB2E1E72AB10BF15E
:1061D000010B1FFA8BFB013407E05A0707D5BDF806
:1061E000222093441FFA8BFB1444A4B2D0E7CBEBDC
:1061F00006039BB200E00023A9B2A0B20A18083A35
:10620000DFF80CE11A4492B2AEF800200FFA82FED9
:10621000BEF1000FDFF8F4C00BDD9CF800B0BBF15D
:10622000000F03D0C0F10805ADB202E0C1F10804CF
:10623000A4B2ADF818309CF80030ADF81450ADF8A9
:10624000164013B9BEF1070F00DD0022BDF914306E
:10625000002B25DCBDF91630002B21DD2D4BB9B20A
:10626000B3F9004008B2844214B2C8BF1980002CB0
:1062700013DD07A80021322209F0EEFF22238DF85A
:106280002530002507F10801294407A809B2013586
:106290000BF032F82BB2A342F4DB48460BF0D4F8F3
:1062A0000AF1010A0836BAF1040FB6B27FF43CAF26
:1062B0004046FFF781FE431C044604D1039A0123A4
:1062C000137000201DE00021322207A809F0C4FF4E
:1062D000019927220DF126000AF08CF9029B24B2C5
:1062E00043F0020307A82146ADF822808DF825303F
:1062F0000BF002F8204607A9FFF7EEFD08B10023D6
:10630000036015B0BDE8F08FB6230020B72300204E
:10631000F21C0020F01C00202DE9F84381460D46B8
:106320000024244F4FF00C0808FB047898F808303C
:106330005BB988F8083088F809304846FFF7F4FD63
:106340000646C8F80400B8B906E00134052CE8D1C7
:106350004FF0FF30BDE8F88305F00303012BF7D0C1
:106360004846082101223346FFF7C2FEC8F8040060
:106370000028EDD0066007E00368013304D1B0F9CE
:1063800004000AF091FF30600C2303FB0472117AC1
:106390006343294315F00405117218BF5268204663
:1063A00018BF1568FA185268FD50937A013393723A
:1063B000BDE8F8831408002004280CD8064B0C22F2
:1063C00002FB0030037A33B14168002202728B7AFB
:1063D000013B8B7242607047140800202DE9F047A2
:1063E000042890B080460E4614466CD80C234343D4
:1063F000374DEA18117A002965D0C90763D5576867
:10640000527A52070DD532190C2303FB08F3EB58CF
:10641000941B396823448B4209D9002302F8013DBB
:10642000F2E7EB583A68E118914288BFD41AFB7A38
:10643000B7F9042013F0010F11D10C2303FB08F866
:1064400055F808303046323303EB022221460BF078
:1064500074F855F80830234445F8083031E003A8B3
:1064600011460AF01DFFA146B9F1000F29D04FF0E7
:106470000C0A0AFB08FAADF8089055F80A3003A890
:10648000B7F908106A468DE848000AF04AFF00286C
:106490000DDA55F80A30B7F9042032333046BDF82A
:1064A000081003EB02220BF048F8BDF808000C239B
:1064B00003FB08F3EA5806440244EA50C0EB09091A
:1064C000D2E7204601E04FF0FF3010B0BDE8F08782
:1064D000140800202DE9F04780469AB000AF3846F6
:1064E0000C4641460AF0DCFE07F10A000121FFF7E5
:1064F00013FF051E74DBB7F9061007F10A00A1406F
:1065000009B201220023FFF7F3FD044600284BD017
:106510000026BA88E946002A08BF4FF48072D31DCE
:1065200023F00703ADEB030D28466946FFF756FF3E
:10653000B0F1000A0ADA00210A46B4F90400FFF7B4
:106540007BFD2846FFF738FFCD4649E009D0B4F976
:106550000420684606EB0222514632320AF086FFDA
:106560005644CD46BAF1000FD3D1204B03F13C0184
:106570001A7A42B15A68B2F90420424501BF5C6000
:10658000A27A0132A2720C338B42F1D10121404632
:106590000022FFF751FD0028B4F9041008DA08467C
:1065A00000210A46FFF748FD2846FFF705FF17E0E0
:1065B00007F134000AF074FEBB8807F134003B8712
:1065C0007B88B4F90410FB860AF096FEE37A28462D
:1065D00023F00103E3722660FFF7EEFE002001E0E6
:1065E0004FF0FF306837BD46BDE8F0871408002043
:1065F0002DE9F04F9FB0FF2300AF04280646396213
:10660000FA6287F8343002D94FF0FF3093E1BB4C87
:106610000C2303FB00431A7A002AF5D09207F3D526
:10662000D3F804905B7A9D0715D40C237343E518C7
:10663000E358FA6A32331344B9F90620B3EB022F58
:1066400009D9B9F904000121FFF744FF0028DBDB79
:10665000D5F80490E9E70C237343E218527AD00787
:1066600000F14E8199F80B20D10706D4A34AD258E5
:10667000D9F800309A4280F24381FB6ABB62002362
:10668000BB61BB6A002B40F30A810C2373439B4A16
:10669000B9F9041007F14400D4580AF001FEB7F824
:1066A0004830B7F84610002B14BF98464FF4807856
:1066B00021B94FF4807A9AFBF8FA00E08A4694FBFD
:1066C000F8F295B208FB1242388DFA61C2EB08026B
:1066D0009042C4BF92B27A6297F84D20D8BF7862D8
:1066E0001207FD864ED5B9F90840B7F84450002C82
:1066F0003EDAD4465446BAF1100FA8BF4FF0100C42
:106700004FEA4C03083323F00703C7F80CD0ADEB76
:10671000030D2BB21B023233C7F814D03B614FF08C
:10672000000BD34522DACBEB0A046445A8BF6446CC
:106730003B69A4B203EB4B0278696100C7F804C05F
:10674000BC600AF0FAFEBB68D7F804C00022A2427F
:1067500008D0796931F8121011B902EB0B0401E08D
:106760000132F4E79B441FFA8BFBDAE7D7F80CD031
:10677000A4B223B253453ADBB9F904000021FFF774
:10678000A9FE85E0002B08BF4FF4807321B94FF4B8
:10679000807191FBF3F189B20233594301F2311157
:1067A00007F14E0041F30F2101221023FFF7A0FC57
:1067B000044600286ED097F84D3043F0080387F860
:1067C0004D308388B9F9041007F14400A7F844302C
:1067D0000AF092FD99F80B3043F0010389F80B3071
:1067E000A5882BB2013355D0A7F84450002408F1F6
:1067F000070323F00703C7F814D0ADEB030DFB8E9E
:10680000FA6908FB03F3002AEB46BB63C7F83CD0E8
:10681000A7F8408002DC7A6A424513D007F14400B1
:1068200021B207F138023B610AF07BFD00283B6989
:1068300008DAB9F90420584603EB02224146323205
:106840000AF07BFEFB69396A5B4418467A6A09F0F4
:1068500029FCFB8E2DB207F1780001332D0220F8C0
:10686000423D323523B205EB43020221FB610AF0BF
:10687000FDFDFB6905EB4A025846414608FB032231
:1068800001340AF0F3FDA9F80840D7F814D0786A6B
:10689000002816DAFB6ABA6A93423FF4B5AEBB69C8
:1068A000002B3DD00C237343144A07F13400D35816
:1068B000B9F904203133012103EB02220AF0D6FD9D
:1068C0002EE00E494FF00C0304D103FB0613D3F85E
:1068D0000490D6E67343BA6A121ABA62CA580244DE
:1068E000CA503B6A03443B62D9F800309A427FF7B2
:1068F000C8AEC9F800200123C2E600BF140800207A
:106900000C2575436259B9F90430323202EB032287
:10691000386AF96A0AF0AAFD6359FA6A13446351A6
:106920000C235E43064BD9F800209B59F86A93422A
:10693000C8BFC9F800307C37BD46BDE8F08F00BF46
:10694000140800200FB407B504AA52F8041B044829
:10695000019200F035F803B05DF804EB04B0704725
:10696000A80400201FB5084C8DE80300114602A8BA
:106970001A460294CDF80CD000F022F8009B0022B9
:106980001A7004B010BD00BF6F15210070B5054628
:106990000C46102C07D92B686868084910229847C4
:1069A00050B9103CF5E734B12B6868682246BDE861
:1069B000704002491847204670BD00BFEA332100ED
:1069C0002DE9F04F80468FB0069107920026069B76
:1069D0001B78002B00F05F83069B1C4613F8012BED
:1069E0001AB9069B9C4203D10FE0252AF5D1F8E79E
:1069F000069BD8F80400E51A0699D8F800302A4614
:106A00009847002840F02A832E442378002B00F07A
:106A100042836378611C002B00F03D8300240A460A
:106A200011F8013B2B2B11D006D8202B11D0232B92
:106A300012D144F00804F2E72D2B04D0302B0BD1F7
:106A400044F01004EBE744F00104E8E744F00604E6
:106A5000E5E744F00204E2E7A3F1310108290DD88B
:106A6000134600251A4613F8011BA1F1300009282E
:106A700011D80A2202FB0515303DF3E72A2B09D174
:106A8000079B01321D68191D002D0791B8BF44F006
:106A9000010400E0002513782E2B1CD15178531CE3
:106AA000A1F1300009280ED8194600270A780B46B4
:106AB000A2F13000092801F101010FD80A2303FBDC
:106AC0000727303FF2E72A2906D1931C079A111DA8
:106AD0000791176802E013464FF0FF371A786C2AC7
:106AE00009D15A786C2A02D144F080040AE00133BB
:106AF00044F060040BE0682A09D15A78682A03D16F
:106B000044F02004023302E0013344F040041A78D8
:106B1000642A3CD01FD8462A48D00DD8252A5AD0FE
:106B200003D8002A00F0B78257E0412A4AD0452A0C
:106B300053D144F4424450E0582A31D004D8472A73
:106B40004BD144F4A13448E0612A38D0632A44D1BF
:106B500044F4A06441E06E2A3AD007D8662A22D0D5
:106B600027D3672A28D0692A11D036E0732A2CD07F
:106B700006D86F2A11D0702A2FD144F440742CE02B
:106B8000752A07D0782A28D144F4C85425E044F463
:106B9000245422E044F410641FE044F488541CE0C0
:106BA00044F4B24419E044F4007416E044F484441C
:106BB00013E044F4024410E044F481340DE044F462
:106BC000C1340AE044F4E13407E044F4806404E0B2
:106BD00044F4E06401E044F4C0640133069304F437
:106BE000E063B3F5806F00F0AA8116D8B3F5807F1B
:106BF0002BD0B3F5407F7FF4EAAE079BA04914F495
:106C0000804F03F104029F4818BF08460DF133017D
:106C100007920F461A680023C5E1B3F5C06F08D08C
:106C2000B3F5E06F00F03182B3F5A06F7FF4CFAE23
:106C300000E2D8F80030D8F80400934901229847C0
:106C4000002840F00B820136C1E6002FACBF24F0D3
:106C50001004012714F40053039304F0E00337D029
:106C6000402B17D008D8DBB1202B2AD1079B1A1D47
:106C7000079293F9002017E0602B11D0802B20D1D0
:106C8000079B073323F0070303F108020792D3E9B8
:106C900000230AE0079B1A1D0792B3F9002003E0C6
:106CA000079B1A1D07921A68D317002A73F1000177
:106CB00009DA524263EB4303CDE900234FF00109A7
:106CC00033E000220023CDE900234FF000092CE03F
:106CD000402B16D007D8CBB1202B20D1079B1A1DF3
:106CE00007921A78EEE7602B10D0802B17D1079B04
:106CF000073323F0070303F108020792D3E90023C7
:106D0000E1E7079B1A1D07921A88DBE7079B002122
:106D10001A1D07921B681846CDE90001D5E700222D
:106D20000023CDE900234FF0000904F4C053B3F56C
:106D3000805F0CD0B3F5C05F33D0B3F5006F4FD197
:106D4000DDE900230DF1360ACDE9042304E0DDE995
:106D500000230DF1360A15E0DDE9042313433AD090
:106D6000DDE904010A22002308F08EFEDDE90401BA
:106D700030320AF8012D00230A2208F085FECDE901
:106D80000401E9E752EA030125D002F0070130319E
:106D90000AF8011DD10841EA4371D8080A460346A2
:106DA000F0E7384B14F4804F0DF1360A344908BF30
:106DB0001946DDE9002352EA03000CD002F00F006F
:106DC000085C4FEA131E0AF8010D100940EA03702F
:106DD00002467346EFE70DF1360BCAEB0B0B03E0EF
:106DE0000DF1360A4FF0000B41F6080241F208039C
:106DF0005F4502EA04028CBFCBEB070700279A42EB
:106E000002D1002F08BF012741F608018A4207EB93
:106E10000B030DD1DDE9000150EA010208D01B4946
:106E200014F4804F1A4A4FF0020C18BF0A4602E0D1
:106E30004FF0000C62460399A1B1B9F1000F0AD1DD
:106E400004F0060102290AD00629124904BF4FF0B6
:106E5000010C0A4606E04FF0010C0F4A02E00F4A0F
:106E60004FF0010C63449D428CBFED1A002514F0D5
:106E7000010922D1E30613D52F444D461DE000BF82
:106E8000B5332100C6332100E8332100DA33210075
:106E9000D7332100DF332100DD332100E43E210020
:106EA00040462946CDF80CC00092FFF76FFD009ACE
:106EB000DDF80CC0002840F0D180BCF1000F0DD0EF
:106EC0001146D8F800306246D8F80400CDF800C06A
:106ED0009847DDF800C0002840F0C0803C465E4482
:106EE000102CD8F800300DD9D8F804006C491022C5
:106EF000CDF800C09847002840F0B080103CDDF885
:106F000000C0EDE75CB1D8F8040065492246CDF831
:106F100000C09847DDF800C0002840F09F80D8F8F6
:106F20000030D8F8040051465A4666449847002875
:106F300040F094803E44B9F1000F79D073E0079B94
:106F4000D3F800A01A1D0792BAF1000F09D05346DA
:106F5000994699F800200133002AF9D1CAEB0909B2
:106F600003E0DFF840A14FF00609002F02DBB9452E
:106F700028BFB9464D458CBFC9EB0505002514F067
:106F8000010405D140462946FFF700FD002865D1E0
:106F9000D8F80030D8F8040051464A4698470028EF
:106FA0005CD14E443EE052EA030E0ED002F00F0ECA
:106FB00010F80EE04FEA131C01F801ED4FEA121E23
:106FC0004EEA037E72466346EDE70B467F1A01BF29
:106FD0003022012701F1FF3301F8012C0337782219
:106FE000BD4203F8012C4FF0300203F8022C88BF99
:106FF000ED1B4FF0230298BF002514F00104A3F10C
:10700000030903F8032C04D140462946FFF7BEFCD0
:1070100020BBD8F80030D8F8040049463A469847D3
:10702000E0B93E4424B140462946FFF7AFFCA8B979
:107030002E44CCE4079B012D03F104021B688CBF96
:1070400005F1FF35002514F0010407928DF820307A
:1070500008D140462946FFF799FC10B14FF0FF30A8
:107060001AE02E44D8F80030D8F8040008A901220C
:1070700098470028F2D16F1C2CB140462946FFF7F3
:1070800085FC0028EAD13E44A1E4079B1A1D1B6839
:1070900007921E609BE430460FB0BDE8F08F00BF42
:1070A000A5332100E1332100F8B5038806461546D3
:1070B0002BB14A2B15D0002303800320F8BD1748BD
:1070C0000AF01FFB04462CB1201DA1680AF082FAC9
:1070D0002468F8E7124B01221A704A2333800120FA
:1070E000F8BD8829FBD10D480AF00BFB0446002CA3
:1070F000F3D0231D9D420ED1084821460AF00BFB18
:10710000084B62691F681A60A2691D460AB1E069EE
:1071100090472F60E1E72468E9E700BF8C08002072
:10712000B82300209808002010B5064B002406481C
:107130001C700AF0E3FA2146BDE81040034800F055
:1071400053BA00BFB82300208C080020B0040020F0
:1071500070B50446E3610B4B049D1B786561A26129
:1071600043B1094D094B2E68201D2B600AF032FAFD
:107170002E6000E0A1602146BDE8704004480AF09E
:10718000DEBA00BFB823002098080020B004002019
:107190008C08002013B5034C24680094FFF7D8FF37
:1071A00002B010BD9808002070B5094B05461B7849
:1071B0003BB1084C084B2668043023600AF013FAF0
:1071C00026602946BDE8704004480AF0B8BA00BFFE
:1071D000B823002098080020B00400208C0800206C
:1071E00070B5094B05461B783BB1084C084B266827
:1071F000043023600AF000FA26602946BDE870409A
:1072000004480AF09CBA00BFB82300209808002068
:10721000B00400208C08002010B5084B04461B78F1
:107220001BB1043000F0B8F801E0C36003612146EF
:10723000BDE8104002480AF06EBA00BFB823002033
:107240008C08002010B50446FDF754F994E80C00B2
:107250001344C01A024B98428CBF0020012010BD7D
:10726000FEFFFF7F10B50E4C236813B90D4A136063
:1072700010BDFDF735F9216891E80C001A44131A86
:107280008A6842B192E812002144091A8B4228BF51
:107290000B469268F5E71844024B186010BD00BF1A
:1072A0009008002094080020014800F0B5B900BF04
:1072B000C0040020F8B5038805462BB1592B09D02E
:1072C000002303800320F8BD1E4A136059232B803E
:1072D0000120F8BD872920D08229F7D1194F002637
:1072E0003C68002CF2D020460AF0B1F990B1E06879
:1072F0008821224600F050F950B9E060A3680EB131
:10730000B36000E03B600023A360FFF7ABFFE5E75D
:10731000FFF7CAFF2646A468E3E70A490B680BB9E2
:107320000B60D3E7D868904201D19B68F7E70B6008
:1073300099680029CAD0C86890420ABF89680B467C
:107340009960F5E79008002010B50446FFF7ACFF00
:10735000E3680B4A4BB113683BB1A34203D1094A1E
:107360001268DA6007E09B68F6E7064B1B68E3608B
:1073700013681460A360BDE81040FFF773BF00BF3F
:107380009008002098080020024B1868003018BFB1
:10739000012070479008002010B50B4A044613687E
:1073A000984206D18368136008E09A68A24203D02D
:1073B0001346002BF9D103E0A2689A60FFF752FF51
:1073C0000023A360E36010BD9008002038B58368F7
:1073D00004460D469BB10A4804600220A07304F1E4
:1073E0000C0098470238012801D9832D05D1204689
:1073F0002146BDE8384000F005B80123A37338BD2D
:10740000980800202DE9F8431C4A0446156889466F
:107410002B4690461A4E3768A34204D00BB11B6826
:10742000FAE7BDE8F88334B3A37BABB10023A373C1
:1074300045B1AC4204D02846872122460AF0EDF837
:107440002D68F5E7A3683BB14C4505D0346004F1E5
:107450000C0083212A469847D8F800309C4203D17B
:107460002268064B05E0134623B11A68A242FAD1FE
:1074700022681A603760BDE8F88300BF9C080020CE
:107480009808002010B5094B00221A70084B1C68A0
:107490005CB1E37B3BB101230022A373E27320467E
:1074A0008221FFF793FF2468F2E710BDBB23002081
:1074B0009C080020024B1878421C1A70704700BFCD
:1074C000BC230020014B1968FFF79CBF98080020DF
:1074D000064B8A221A70064A00231370054A13705D
:1074E000054A1360054A1360704700BFBC230020A3
:1074F000B9230020BA2300209C080020980800200F
:107500002DE9F0411A4D2B780BB1FFF7BBFF194C59
:1075100022783AB3184E0C213378184F5943781813
:1075200017F8018001334768806803F01F03013AB0
:107530003370227068B9124B1E689EB12B780BB164
:10754000FFF7A0FF304641463A460AF066F8366833
:10755000F3E7B8F1810F04BF0123837341463A4634
:107560000AF05BF82B7820781844BDE8F08100BF62
:10757000BB230020BA230020B9230020A00800204C
:107580009C080020024A034B10781B78184470476F
:10759000BA230020BB230020F0B50B4E3378202BFC
:1075A0000FD00A4C0C252478094F1C4404F01F040A
:1075B0006C4301333D19A86039556A60337000206F
:1075C000F0BD0120F0BD00BFBA230020B923002088
:1075D000A008002038B5034C25680AF01EF8256085
:1075E00038BD00BF9808002010B50A4609490C684C
:1075F000234683420DD00BB11B68FAE748B1046003
:1076000008600121817383818121BDE81040FFF76B
:10761000E1BF10BD9C08002038B1837B013B012BEA
:107620009FBF024A0123C37313707047BB2300201E
:1076300010B5084C206858B1002323608168436866
:107640009847236823B1BDE810401868FCF796BF3F
:1076500010BD00BF200A002038B505880446672DFC
:1076600009D0792D2ED0002D32D1FFF723FF1B4BEF
:1076700018701B4B1D601B480AF030F8431C01D1E9
:1076800067231DE00A28164B07D01A687E2AF2DC11
:10769000511C1960144B9854EDE7196800254A1CD9
:1076A0001A60114A0D4B555428461978FFF774FF9C
:1076B0000E4B852118682A46FFF76EFF20B9792303
:1076C000238009E0852907D1054B00221A60D2E703
:1076D00000230380032038BD012038BDD83A0020A4
:1076E0002C0A0020240A00203E24002098080020B4
:1076F0000D2810B5014615D00B4C23782BB90B483B
:1077000009F0D8FF48B9012306E00A2805D1074847
:1077100009F0D0FF08B1002323700548FFF77CFF74
:10772000012010BD002010BDBD230020240A002030
:10773000D004002008B505480549802209F0B3FFB0
:10774000BDE8084003480021FFF74EBF240A00208F
:10775000BE230020D004002070B505880446772D94
:1077600030D07E2D3FD0002D4DD1FFF7A3FE294B09
:107770001870294B1D601D462B68284A264E52F86A
:1077800023204AB126480021C1549368802098479D
:10779000336801333360EFE7224A1370772320E028
:1077A0001F4AD256002A12DB1B4A136801331360AA
:1077B000194B1C4A1B6812789342F1DB1A4B1B6869
:1077C000002BEBD0184A00231360134AEFE7114A4D
:1077D00000201178114A52F82320FFF7DDFE30B95E
:1077E0007E23238013E00B4B1B788B420FD10A4B77
:1077F0000B491A688B5C03F07F038B540A4A1368A9
:1078000001331360D0E700230380032070BD012003
:1078100070BD00BFD93A0020300A00208804002043
:10782000D43A0020BE240020340A0020094B1A78E4
:107830000023934204DA084951F82310814207D10A
:1078400006490748CA5C62F07F02CA54FFF7E4BEEB
:107850000133EEE7BE24002088040020D43A002043
:10786000E0040020054A136843F004031360044B4E
:107870001B68906943EA002080B2704700700D4099
:1078800014700D40174A136823F00C031360164B55
:1078900001221A601A68012AFCD1144B08221A60CE
:1078A000E322C3F8142203F505731946104B1B6835
:1078B000DB07FBD5102000230E4A0138126802F0C6
:1078C000010243EA02034FEA43039BB2F4D1002BC7
:1078D000F0D0094A180A03F0FE0310601360EF238A
:1078E0000B60704700700D40A8200D4024860840B2
:1078F000648608409C86084014700D402DE9FF41C5
:107900001F4C204D04F108030FCB8DE80F002978A0
:107910006F4694F80780A1B13A23A3711A4B1A88D5
:10792000521A92B21A80A2F1280318122C31207137
:10793000214404F12C002C3A637108F029FC002347
:107940002B70124809F0DDFE064690B1D6F804C04F
:10795000BCF1000F09D00C4B2A781B8838322C3B25
:107960003846414622449BB2E047304609F006FFC4
:10797000EAE7054B2870188004B0BDE8F08100BF2D
:107980003C2F0020D5240020282F0020380A00207A
:10799000F8B52A4B2A4C1B7904F11806E371237EB3
:1079A00004F10805FF2B08D195E80F0086E80F00C9
:1079B0002846314600F0EAFA1BE02F46B646214A37
:1079C0003B4603CB7345106051601F4602F108022D
:1079D000F6D196E80F0085E80F001A4B1A4D03F117
:1079E00010062A4618685968083303C2B342154680
:1079F000F7D1164D297899B13A23A371144B1A88FF
:107A0000521A92B21A80A2F1280318122C31207156
:107A10006371104821442C3A08F0BAFB00232B7004
:107A20002B7881222833E518E25400236B706B8099
:107A300009F06DFFC0436880F8BD00BFBC2D002079
:107A40003C2F0020F41C0020542F0020D5240020BF
:107A5000282F0020682F002038B504460B480D461B
:107A600009F04FFE78B10379A34209D14379AB42C3
:107A700004D183683BB19847002038BDFF2BF8D074
:107A800009F07CFEEEE7012038BD00BF3C0A002073
:107A90000146014809F053BE3C0A00202DE9F74F8A
:107AA000484D81462B7888469246474C43B128334F
:107AB000E35C3A2B0BD1454A002313802B707EE008
:107AC000A3793A2B03D194F92830002BF3DA04F090
:107AD00051F93F4E3F4AB446934606F1100E3346E5
